S01A00004C45442D537472656966656E6D61747269782E7372656333
S11300000C9436000C945E000C945E000C945E001C
S11300100C945E000C945E000C945E000C945E00E4
S11300200C945E000C945E000C945E000C945E00D4
S11300300C945E000C945E000C945E000C945E00C4
S11300400C945E000C945E000C945E000C945E00B4
S11300500C945E000C945E000C945E000C945E00A4
S11300600C945E000C945E0038043F0411241FBEFF
S1130070CFEFD4E0DEBFCDBF21E0A6E0B1E001C008
S11300801D92A432B207E1F711E0A0E0B1E0E4EF81
S1130090FAE002C005900D92A630B107D9F710E03E
S11300A0C5E3D0E004C02197FE010E944604C43396
S11300B0D107C9F70E94BB030C946D050C94000092
S11300C0FC010FB6F8946091200170912101809198
S11300D02201909123010FBE309721F06083718338
S11300E0828393830895CF93DF93EC0189859A8566
S11300F00E94E4048E819F81883091057CF044B194
S1130100089721E030E0B90102C0660F771F8A9595
S1130110E2F7CB018095842384B90FC099236CF056
S11301204AB121E030E0B90102C0660F771F8A9519
S1130130E2F7CB01809584238AB9DF91CF910895AA
S1130140FC012681378128303105E4F044B1285080
S1130150310981E090E0BC0102C0660F771F2A9547
S1130160E2F79B01242B24B925B1468157814850DD
S1130170510902C0880F991F4A95E2F7809582239E
S113018085B918C03323B4F04AB181E090E0BC01D2
S113019002C0660F771F2A95E2F79B01242B2AB928
S11301A02BB1068002C0880F991F0A94E2F780954C
S11301B082238BB981E0818308950F931F93CF939A
S11301C0DF93EC018B0189859A850E94E404C801C0
S11301D0880F991F9D838C830E944C049A8789877A
S11301E0892B19F01B830A8304C01D821C821B8285
S11301F01A82DF91CF911F910F910895FC0196858A
S1130200838531E0981330E0CB010024880F991FD7
S1130210001C880F991F001C892F902D282F2370F4
S11302202687CB01929582958F7089279F708927A5
S113023083708387AB0156954795569547954370D0
S11302404487962F9370958791E06F3F710511F065
S113025008F090E0908341855285452B51F091E060
S1130260281390E0391729F0CF01628173810E942D
S1130270DD000895AF92BF92CF92DF92EF92FF928A
S11302800F931F93CF93DF93CDB7DEB72B970FB6A2
S1130290F894DEBF0FBECDBF8C01DC0119968D91A1
S11302A09C911A97892B09F4FEC080E090E00E948B
S11302B06000F801C784D088E188F2886C157D0558
S11302C08E059F0520F46787708B818B928BF801D4
S11302D0C784D088E188F2886C157D058E059F055A
S11302E021F3F894D801848195819A8389830184C8
S11302F0F285E02D80818B838C91882309F484C05E
S11303005396CD90DC905497D6019C91D801559684
S11303108C91982B9C83D6019C91809589238D8305
S113032087E08A87AC80FD806B815A854B85298163
S11303303A8199858885E92EB82EC9017B2DAC9226
S11303404F2D67FD4A2D5A954C9331F0660F00C02E
S113035000C0FC9200C0F3CFE190EE0CEE0CFC92D6
S1130360EE0CEE0C7081AC924F2D66FD4A2D57E0D9
S11303704C93EE0C769576957695787FE70EFC9205
S11303806E2DE1900000AC924F2D67FD4A2D5A95D9
S11303904C9332F0660F00C000C0FC9200C0F3CF53
S11303A0EE0CEE0C6E2D57E0FC92019700C0AC925F
S11303B04F2D67FD4A2D5A954C9300C000C000C0D4
S11303C0FC9211F0660FF3CF0197AC924F2D66FDAE
S11303D04A2D57E04C9339F000007081787F672FE5
S11303E0FC9200C0ACCF00C000C0FC926D01D801EB
S11303F05496DC92CE9253976B835A874B879A8399
S11304008983E986788743C0D8015396ED90FC90A0
S11304105497D7019C91D80155968C91982B9C8325
S1130420D7019C91809589238D838D818F8388E06A
S11304308E835C816D814B813E812F8189819A817C
S11304405C9347FD252F00C000C02C9300C000C062
S113045000C000C000C06C930000262F3A9541F004
S1130460441F000000C000C000C000C000C0E8CFAE
S113047038E0419100C06C9300C0019709F7F8017E
S1130480B48BA38B4B833E832F839A838983789485
S113049080E090E00E946000D8011F966D937D93E8
S11304A08D939C9352972B960FB6F894DEBF0FBE94
S11304B0CDBFDF91CF911F910F91FF90EF90DF900F
S11304C0CF90BF90AF900895FC018181882389F07B
S11304D08681978199236CF0089734F094B18589CB
S11304E08095892384B905C09AB18589809589232B
S11304F08AB9683071051CF085E290E002C08BE295
S113050090E0948B838B9B0127703078332334F4F1
S113051021503109286F3F6F2F5F3F4F81E090E0FA
S113052002C0880F991F2A95E2F7858B778366832B
S11305302181222381F06830710524F094B1892B44
S113054084B903C09AB1892B8AB9A389B4899C91CF
S11305508589892B8C930895EF92FF920F931F93B3
S1130560CF93DF93EC017B018A01198218861A86E6
S113057019861F86188A198A1A8AB9010E94FE00F0
S1130580B701CE010E94DD00B801CE010E946402D1
S1130590DF91CF911F910F91FF90EF900895EF920B
S11305A0FF920F93CF93DF93EC018A819B816817AD
S11305B0790708F079C0E885EE2399F0F0E04E9FC2
S11305C0C0014F9F900D1124492F2E9FC0012F9FD2
S11305D0900D1124292F0E9FC0010F9F900D1124FF
S11305E0092F89859A85660F771F680F791F8B8578
S11305F0882359F09C85911104C0922F987F30E094
S113060007C0902F987F30E003C0942F987F30E08C
S1130610E32EF92E8130C9F09C85913059F4A22F34
S1130620A87FB0E0FD01EE0FFF1FEE0FFF1FEE0FDE
S1130630FF1F15C0902F987FE92FF0E0EE0FFF1FEA
S1130640EE0FFF1FEE0FFF1F0AC0A42FA87FB0E01C
S1130650FD01EE0FFF1FEE0FFF1FEE0FFF1FEE2930
S1130660FF298230A1F08C85823049F4287F822FC3
S113067090E0AC01559547955595479510C0087F76
S1130680402F50E0559547955595479508C0487FAC
S1130690842F90E0AC0155954795559547954E2B81
S11306A05F2BFB0150834183DF91CF910F91FF902A
S11306B0EF9008958F929F92AF92BF920F931F93E2
S11306C0DC011296ED91FC9113976E177F0770F47D
S11306D089019A01FB01A90166277727812E922EB1
S11306E0A32EBB24282DBF010E94CF021F910F917E
S11306F0BF90AF909F908F9008956F5FFC0120850D
S1130700621360870895DC0120E030E014968D9137
S11307109C9115972817390750F41996ED91FC917F
S11307201A97E20FF31F10822F5F3F4FEFCF089508
S11307300F931F93CF93DF93EC018B01019769F41F
S11307406F3F7F4F51F422E530E046E050E06CE229
S113075071E086E091E00E94AC02CD2B39F40F3FAA
S11307601F4F21F486E091E00E947300DF91CF9146
S11307701F910F91089580E284B985B1806285B993
S113078086E091E00E94A0006EE186E091E00E9484
S11307907D0386E091E00E943A012FEF83ED90E320
S11307A0215080409040E1F700C0000085B18F7D6A
S11307B085B90CEF1FEF86E091E00E948303E80106
S11307C0112314F4C0E0D0E0C8010596C817D90776
S11307D0CCF5C83CD1052CF0FE01EF5AF109EE0F1F
S11307E001C0E0E06C2F7D2FCE0184569109843640
S11307F0910518F44996880F01C080E0C436D105EC
S11308002CF49E01275E3F4F220F01C020E0C22E30
S1130810D12CE12CF12C7601DD24CC2490E0A0E055
S1130820B0E0BA2FA92F982F88278C299D29AE29AB
S1130830BF299C01AD012E2B86E091E00E945A0352
S11308402196C2CF0F5F1F4F013321E0120714F02E
S11308500CEF1FEF86E091E00E943A018FEF95EADA
S11308602EE0815090402040E1F700C00000A3CF6B
S11308706FEF7FEF81E090E00E94980308956FEF9F
S11308807FEF80E090E00E9498030895EE0FFF1F31
S11308900590F491E02D09940F931F93CF93DF9368
S11308A08230910510F482E090E0E0911E01F09115
S11308B01F0120E030E0A0E0B0E0309719F1408162
S11308C051810281138148175907C8F0841795078D
S11308D069F4109731F012960C93129713961C93A7
S11308E027C000931E0110931F0122C0211531055A
S11308F019F04217530718F49A01BD01EF01DF0103
S1130900F801DBCF21153105F9F0281B390B243010
S1130910310580F48A819B816115710521F0FB0109
S11309209383828304C090931F0180931E01FE0170
S1130930329644C0FE01E20FF31F8193919322503B
S11309403109398328833AC020911C0130911D015B
S1130950232B41F4209102013091030130931D01B6
S113096020931C01209100013091010121153105D2
S113097041F42DB73EB74091040150910501241B69
S1130980350BE0911C01F0911D01E217F307A0F46F
S11309902E1B3F0B2817390778F0AC014E5F5F4FD1
S11309A02417350748F04E0F5F1F50931D014093E5
S11309B01C018193919302C0E0E0F0E0CF01DF914C
S11309C0CF911F910F910895CF93DF93009709F46E
S11309D081C0FC01329713821282A0911E01B09152
S11309E01F01109781F420813181820F931F209180
S11309F01C0130911D012817390751F5F0931D0191
S1130A00E0931C0167C0ED0120E030E0CE17DF0762
S1130A1040F44A815B819E0141155105F1F0EA01E0
S1130A20F5CFD383C28340815181840F951FC817AA
S1130A30D90759F488819981840F951F029691836F
S1130A4080838A819B81938382832115310529F4D4
S1130A50F0931F01E0931E013DC0E901FB83EA838B
S1130A6049915991C40FD51FEC17FD0761F480819A
S1130A709181840F951F0296E9019983888382816D
S1130A8093819B838A83E0E0F0E012968D919C91A0
S1130A901397009719F0FD01DC01F7CF8D919C911C
S1130AA011979D012E5F3F4F820F931F20911C01D0
S1130AB030911D012817390769F4309729F41092F1
S1130AC01F0110921E0102C013821282B0931D01F5
S1130AD0A0931C01DF91CF91089510E0C5E3D0E00D
S1130AE004C0FE010E9446042196C633D107C9F70B
S1070AF0F894FFCFA4
S1090AF4000024012000B3
S9030000FC
