S01A00004C45442D537472656966656E6D61747269782E7372656333
S11300000C94D3000C94F0000C94F0000C94F000C9
S11300100C94F0000C94F0000C94F0000C94F0009C
S11300200C94F0000C94F0000C94F0000C94F0008C
S11300300C94F0000C94F0000C94F0000C94F0007C
S11300400C94F0000C94F0000C94F0000C94F0006C
S11300500C94F0000C94F0000C94F0000C94F0005C
S11300600C94F0000C94F00000000000000000006C
S11300700101010101010101020202020202020363
S11300800303030304040405050505050606060623
S11300900707070808080808090A0A0A0A0B0B0CCC
S11300A00C0C0C0D0D0D0E0E0F0F0F101111111164
S11300B012121314141414151616171717181919E5
S11300C01A1A1B1B1C1C1D1E1E1F1F20212122234C
S11300D0232425252626272829292A2B2C2D2D2E95
S11300E02F2F3031323334353636373838393A3BBE
S11300F03C3D3E3F404142434445454647494A4BC7
S11301004C4D4E4F50515254555657595A5B5D5EA3
S11301105F60616264656667696A6C6D6E6F717356
S1130120757677797A7B7C7F808283858688898BD4
S11301308C8F9192939497999A9C9E9FA2A3A5A722
S1130140A9ABADAEB0B3B4B6B9BABCBEC0C2C4C735
S1130150C9CACDCFD1D3D6D8DADCDFE1E2E6E7EB0A
S1130160ECF0F1F5F6FAFBFF0102040810204080E0
S113017001020408102001020408102004040404ED
S1130180040404040202020202020303030303033D
S113019000000000250028002B00000000002400BF
S11301A027002A00880311241FBECFEFD4E0DEBF4E
S11301B0CDBF23E0A0E0B1E001C01D92A337B20798
S11301C0E1F710E0C3EDD0E004C02197FE010E94E6
S11301D09A06C23DD107C9F70E94E8020C94AB0607
S11301E00C9400002D9A2FEF86E791E02150804077
S11301F09040E1F700C000002D9808954F925F925F
S11302006F927F928F929F92AF92BF92CF92DF9222
S1130210EF92FF920F931F93CF93DF935C017B01C7
S11302206A014901EB013A01661A770A9CE2492EF8
S113023055245394CC15DD05BCF49801A401B301F5
S1130240CE018E199F090E948D059C01CE01B20139
S11302500E942706FC013296EE0FFF1FEA0DFB1DDC
S1130260318320832196E6CFDF91CF911F910F91A7
S1130270FF90EF90DF90CF90BF90AF909F908F90C2
S11302807F906F905F904F9008952F923F924F927E
S11302905F926F927F928F929F92AF92BF92CF9212
S11302A0DF92EF92FF920F931F93CF93DF93CDB71B
S11302B0DEB72A970FB6F894DEBF0FBECDBF5C0140
S11302C0FC01E359FD4F808195012B593D4F3E833D
S11302D02D83D901ED91FC919081265F3F4F3887A2
S11302E02F83982BD9019C939081F501E059FD4F00
S11302F0FA87E9878095892380831501F3EA2F1A09
S1130300FDEF3F0A53978C91F101808375968081AC
S1130310833021F48FB731978083F894F501ED5938
S1130320FD4F008111810115110509F4AEC0FC9146
S1130330FC83F5013496412C512C32012C81822E00
S1130340912CA4014F5F5F4F819191916C01CC245A
S113035038EFD322CD2CDD24C49EB001C59E700D90
S1130360D49E700D1124672F7727460E571E611CEB
S1130370711C6C0120EEC22227E0D22233E0D69415
S1130380C7943A95E1F7C49EB001C59E700DD49E02
S1130390700D1124672F7727460E571E611C711CA0
S11303A033E0880F991F3A95E1F79927849FB001AC
S11303B0859F700D949F700D1124672F7727460E2B
S11303C0571E611C711CAE17BF0709F0BDCF55271E
S11303D077FC5A95472D362D252DF501A081B18145
S11303E00E94700623E030E040E050E00E943B06AB
S11303F029013A01F501A281B381232B242B252B5A
S113040009F440C02CE231E00E94690628EE33E092
S113041040E050E00E943B0673016201C20ED31E0D
S1130420E41EF51EC801012E000CAA0BBB0BC81656
S1130430D906EA06FB0634F1B801621B730B072EDA
S1130440000C880B990B0E9494046B017C01B4018D
S1130450990C880B990B0E9494049B01AC01C70171
S1130460B6010E9420056B017C01C301B2010E9408
S113047094049B01AC01C701B6010E94F1030E94E0
S113048063046C83EC81D101EC9385010C5F1F4FF5
S11304907501F4EAEF1AFDEFFF0AF501EE58FD4F7E
S11304A0B5016F587D4F6E0124E0C20ED11CD801F6
S11304B02D913D918D01D1018C9190E00196A9017E
S11304C04427587F452F5527489FD001499FB00D99
S11304D0589FB00D1124BA83A901407E5770B3E030
S11304E056954795BA95E1F7489FD001499FB00DBD
S11304F0589FB00D1124B98343E0220F331F4A954E
S1130500E1F73327289FA001299F500D389F500DF4
S113051011245B838081823021F48FB7DB018C93BB
S1130520F894CE010196DC012D91CD01308131305A
S113053021F43FB7DB013C93F894AF81B8855C911B
S1130540A985BA859C90AD81BE816D907C90D301C4
S113055038E05C9327FF9C92220F43E04A95F1F721
S113056000009C923A95A9F72081213019F4DB010F
S11305702C912FBFC816D906B1F68081823019F4A8
S1130580DB018C918FBFE016F10609F090CF8081DA
S1130590833029F4F501EF58FD4F80818FBF2A96EF
S11305A00FB6F894DEBF0FBECDBFDF91CF911F9180
S11305B00F91FF90EF90DF90CF90BF90AF909F90FE
S11305C08F907F906F905F904F903F902F90089501
S11305D0259A2D9A2FEF83ED90E32150804090408F
S11305E0E1F700C000002D982FEF83ED90E3215038
S11305F080409040E1F700C000000E94F200EAE968
S1130600F0E0E491E0935C030FE110E020E030E0DF
S11306104DE150E060E070E080E091E00E94FE0077
S113062000E114E820E034E04BE350E06EE170E0D8
S113063080E091E00E94FE0000E819EF20E03CEF2A
S11306404FEE50E06CE370E080E091E00E94FE0029
S113065008E116EC20E038EF4BE251E060EF70E087
S113066080E091E00E94FE0080E091E00E9445015C
S11306702FEF83ED90E3215080409040E1F700C0DC
S113068000000E94F200E4E0F1E01192119223E0F4
S1130690EC35F207D1F7C0E0D0E09CE2C92EDD24AE
S11306A0D394FE01EE0FFF1FEC5FFE4F1182108208
S11306B0CE010196B6010E942706EC017C0184E07C
S11306C0E80EF11C00E018EF20E030E0A701BE01C5
S11306D080E091E00E94FE00AE01485F5F4F00E0C1
S11306E010E020E038EFB70180E091E00E94FE00C6
S11306F080E091E00E9445019FEF20E782E0915065
S113070020408040E1F700C000000E94F200C9CF01
S11307102EE230E0309301012093000180ED97E058
S1130720909303018093020182E380935C0380939E
S11307305D038EE080935E0310925F035AE0509352
S113074060038EE18093610310926203109264034C
S1130750109263038FB78093710383E080937203D5
S1130760EEE6F1E0449140936D0382E891E0FC01F0
S11307706491E62FF0E0EE0FFF1FE057FE4F659106
S113078074917093660360936503FC018491E82F70
S1130790F0E0EE0FFF1FE656FE4FA591B491B09323
S11307A06803A0936703EC914E2B4C9330930101A3
S11307B0209300018CE697E090930301809302015B
S11307C080915E03843031F093EF980F923010F0F3
S11307D0873021F48EE1809362030895509362037D
S11307E008950E9405040C94E6040E94DF0458F066
S11307F00E94D80440F029F45F3F29F00C94CF0400
S113080051110C941A050C94D5040E94F70468F352
S11308109923B1F3552391F3951B550BBB27AA27B5
S113082062177307840738F09F5F5F4F220F331FEF
S1130830441FAA1FA9F335D00E2E3AF0E0E832D0B7
S113084091505040E695001CCAF72BD0FE2F29D0BA
S1130850660F771F881FBB1F261737074807AB078C
S1130860B0E809F0BB0B802DBF01FF2793585F4F01
S11308703AF09E3F510578F00C94CF040C941A057D
S11308805F3FE4F3983ED4F3869577956795B795E3
S1130890F7959F5FC9F7880F911D9695879597F9EE
S11308A00895E1E0660F771F881FBB1F6217730767
S11308B08407BA0720F0621B730B840BBA0BEE1F7C
S11308C088F7E09508950E94FF0488F09F5798F0F8
S11308D0B92F9927B751B0F0E1F0660F771F881F41
S11308E0991F1AF0BA95C9F714C0B13091F00E945B
S11308F01905B1E008950C941905672F782F8827FE
S1130900B85F39F0B93FCCF3869577956795B39581
S1130910D9F73EF490958095709561957F4F8F4FF0
S11309209F4F0895E89409C097FB3EF490958095F5
S1130930709561957F4F8F4F9F4F9923A9F0F92FA1
S113094096E9BB279395F695879577956795B7951F
S1130950F111F8CFFAF4BB0F11F460FF1BC06F5F05
S11309607F4F8F4F9F4F16C0882311F096E911C017
S1130970772321F09EE8872F762F05C0662371F038
S113098096E8862F70E060E02AF09A95660F771F4C
S1130990881FDAF7880F9695879597F9089597F940
S11309A09F6780E870E060E008959FEF80EC089511
S11309B000240A941616170618060906089500243A
S11309C00A9412161306140605060895092E0394B4
S11309D0000C11F4882352F0BB0F40F4BF2B11F428
S11309E060FF04C06F5F7F4F8F4F9F4F089557FD87
S11309F09058440F551F59F05F3F71F04795880F89
S1130A0097FB991F61F09F3F79F08795089512161F
S1130A1013061406551FF2CF4695F1DF08C01616CB
S1130A2017061806991FF1CF86957105610508947C
S1130A300895E894BB2766277727CB0197F9089593
S1130A400E9433050C94E6040E94D80438F00E94F6
S1130A50DF0420F0952311F00C94CF040C94D504FA
S1130A6011240C941A050E94F70470F3959FC1F3A6
S1130A70950F50E0551F629FF001729FBB27F00D48
S1130A80B11D639FAA27F00DB11DAA1F649F66279D
S1130A90B00DA11D661F829F2227B00DA11D621FEC
S1130AA0739FB00DA11D621F839FA00D611D221FA6
S1130AB0749F3327A00D611D231F849F600D211D8A
S1130AC0822F762F6A2F11249F5750409AF0F1F00D
S1130AD088234AF0EE0FFF1FBB1F661F771F881F76
S1130AE091505040A9F79E3F510580F00C94CF04DB
S1130AF00C941A055F3FE4F3983ED4F386957795FA
S1130B006795B795F795E7959F5FC1F7FE2B880F1B
S1130B10911D9695879597F90895CF92DF92EF925C
S1130B20FF920F931F93CF93DF938C010617170740
S1130B301CF0061B170BFACF6A01CC2488EFD822CD
S1130B40CD2CDD247B0181E0E81AF108EA01C07EA6
S1130B50D77093E0D695C7959A95E1F763E0440F73
S1130B60551F6A95E1F7FA01FF27A9014427587F29
S1130B70452F55274C195D09409FC001419F900D99
S1130B80509F900D1124B7010E941306C60ED71E64
S1130B9088EFC822DD24DC2CCC24A901407E5770C8
S1130BA0B3E056954795BA95E1F74C1B5D0B409F12
S1130BB0C001419F900D509F900D1124B7010E94D8
S1130BC01306C60FD71FCC7FDD2783E0CC0FDD1FB4
S1130BD08A95E1F7CC29DD2993E0220F331F9A95FA
S1130BE0E1F733272E1B3F0B209FC001219F900D5F
S1130BF0309F900D1124B7010E941306CB018E0F74
S1130C009F1F887F992723E0969587952A95E1F77A
S1130C108C2B9D2BDF91CF911F910F91FF90EF9023
S1130C20DF90CF900895AA1BBB1B51E107C0AA1FF8
S1130C30BB1FA617B70710F0A61BB70B881F991F79
S1130C405A95A9F780959095BC01CD01089597FB1D
S1130C50072E16F4009407D077FD09D00E941306DE
S1130C6007FC05D03EF4909581959F4F08957095AB
S1130C7061957F4F0895052E97FB1EF400940E9402
S1130C80520657FD07D00E94780607FC03D04EF4A5
S1130C900C94520650954095309521953F4F4F4FF7
S1130CA05F4F089590958095709561957F4F8F4F14
S1130CB09F4F0895A29FB001B39FC001A39F700DE1
S1130CC0811D1124911DB29F700D811D1124911D50
S1130CD008950E945A06B7FF0895821B930B089546
S1130CE0B7FF0C94A0060E94A006821B930B0895E4
S1130CF0A1E21A2EAA1BBB1BFD010DC0AA1FBB1F1C
S1130D00EE1FFF1FA217B307E407F50720F0A21B8D
S1130D10B30BE40BF50B661F771F881F991F1A94FA
S1130D2069F760957095809590959B01AC01BD0124
S1130D30CF010895EE0FFF1F0590F491E02D099463
S1130D400E945A06A59F900DB49F900DA49F800DFC
S10D0D50911D11240895F894FFCFBB
S9030000FC
